{
  "contractName": "Adoption",
  "abi": [
    {
      "constant": true,
      "inputs": [
        {
          "internalType": "uint256",
          "name": "",
          "type": "uint256"
        }
      ],
      "name": "adopters",
      "outputs": [
        {
          "internalType": "address",
          "name": "",
          "type": "address"
        }
      ],
      "payable": false,
      "stateMutability": "view",
      "type": "function"
    },
    {
      "constant": true,
      "inputs": [],
      "name": "timesClicked",
      "outputs": [
        {
          "internalType": "uint256",
          "name": "",
          "type": "uint256"
        }
      ],
      "payable": false,
      "stateMutability": "view",
      "type": "function"
    },
    {
      "constant": false,
      "inputs": [
        {
          "internalType": "string",
          "name": "yes",
          "type": "string"
        },
        {
          "internalType": "string",
          "name": "no",
          "type": "string"
        },
        {
          "internalType": "string",
          "name": "ay",
          "type": "string"
        }
      ],
      "name": "addData",
      "outputs": [],
      "payable": false,
      "stateMutability": "nonpayable",
      "type": "function"
    },
    {
      "constant": false,
      "inputs": [
        {
          "internalType": "uint256",
          "name": "petId",
          "type": "uint256"
        }
      ],
      "name": "adopt",
      "outputs": [
        {
          "internalType": "uint256",
          "name": "",
          "type": "uint256"
        }
      ],
      "payable": false,
      "stateMutability": "nonpayable",
      "type": "function"
    },
    {
      "constant": true,
      "inputs": [],
      "name": "getAdopters",
      "outputs": [
        {
          "internalType": "address[16]",
          "name": "",
          "type": "address[16]"
        }
      ],
      "payable": false,
      "stateMutability": "view",
      "type": "function"
    },
    {
      "constant": false,
      "inputs": [],
      "name": "clickMe",
      "outputs": [
        {
          "internalType": "uint256",
          "name": "",
          "type": "uint256"
        }
      ],
      "payable": false,
      "stateMutability": "nonpayable",
      "type": "function"
    },
    {
      "constant": true,
      "inputs": [],
      "name": "getClicker",
      "outputs": [
        {
          "internalType": "address[16]",
          "name": "",
          "type": "address[16]"
        }
      ],
      "payable": false,
      "stateMutability": "view",
      "type": "function"
    }
  ],
  "bytecode": "0x608060405234801561001057600080fd5b506108b8806100206000396000f3fe608060405234801561001057600080fd5b506004361061007d5760003560e01c80638588b2c51161005b5780638588b2c51461031f57806388d5f8aa14610361578063b7daaed91461037f578063f2570f70146103c55761007d565b80633de4eb17146100825780633e4aaec9146100c857806343ae80d3146102b1575b600080fd5b61008a6103e3565b6040518082601060200280838360005b838110156100b557808201518184015260208101905061009a565b5050505090500191505060405180910390f35b6102af600480360360608110156100de57600080fd5b81019080803590602001906401000000008111156100fb57600080fd5b82018360208201111561010d57600080fd5b8035906020019184600183028401116401000000008311171561012f57600080fd5b91908080601f016020809104026020016040519081016040528093929190818152602001838380828437600081840152601f19601f8201169050808301925050505050505091929192908035906020019064010000000081111561019257600080fd5b8201836020820111156101a457600080fd5b803590602001918460018302840111640100000000831117156101c657600080fd5b91908080601f016020809104026020016040519081016040528093929190818152602001838380828437600081840152601f19601f8201169050808301925050505050505091929192908035906020019064010000000081111561022957600080fd5b82018360208201111561023b57600080fd5b8035906020019184600183028401116401000000008311171561025d57600080fd5b91908080601f016020809104026020016040519081016040528093929190818152602001838380828437600081840152601f19601f820116905080830192505050505050509192919290505050610464565b005b6102dd600480360360208110156102c757600080fd5b810190808035906020019092919050505061058a565b604051808273ffffffffffffffffffffffffffffffffffffffff1673ffffffffffffffffffffffffffffffffffffffff16815260200191505060405180910390f35b61034b6004803603602081101561033557600080fd5b81019080803590602001909291905050506105bd565b6040518082815260200191505060405180910390f35b61036961062e565b6040518082815260200191505060405180910390f35b610387610634565b6040518082601060200280838360005b838110156103b2578082015181840152602081019050610397565b5050505090500191505060405180910390f35b6103cd6106b5565b6040518082815260200191505060405180910390f35b6103eb610734565b600060108060200260405190810160405280929190826010801561045a576020028201915b8160009054906101000a900473ffffffffffffffffffffffffffffffffffffffff1673ffffffffffffffffffffffffffffffffffffffff1681526020019060010190808311610410575b5050505050905090565b6040518060600160405280848152602001838152602001828152506010600082015181600001908051906020019061049d929190610757565b5060208201518160010190805190602001906104ba929190610757565b5060408201518160020190805190602001906104d7929190610757565b509050506013601090806001815401808255809150509060018203906000526020600020906003020160009091929091909150600082018160000190805460018160011615610100020316600290046105319291906107d7565b50600182018160010190805460018160011615610100020316600290046105599291906107d7565b50600282018160020190805460018160011615610100020316600290046105819291906107d7565b50505050505050565b6000816010811061059757fe5b016000915054906101000a900473ffffffffffffffffffffffffffffffffffffffff1681565b60008082101580156105d05750600f8211155b6105d957600080fd5b33600083601081106105e757fe5b0160006101000a81548173ffffffffffffffffffffffffffffffffffffffff021916908373ffffffffffffffffffffffffffffffffffffffff160217905550819050919050565b60145481565b61063c610734565b60156010806020026040519081016040528092919082601080156106ab576020028201915b8160009054906101000a900473ffffffffffffffffffffffffffffffffffffffff1673ffffffffffffffffffffffffffffffffffffffff1681526020019060010190808311610661575b5050505050905090565b6000601460008154809291906001019190505550601060145414156106dd5760006014819055505b336015601454601081106106ed57fe5b0160006101000a81548173ffffffffffffffffffffffffffffffffffffffff021916908373ffffffffffffffffffffffffffffffffffffffff160217905550601454905090565b604051806102000160405280601090602082028038833980820191505090505090565b828054600181600116156101000203166002900490600052602060002090601f016020900481019282601f1061079857805160ff19168380011785556107c6565b828001600101855582156107c6579182015b828111156107c55782518255916020019190600101906107aa565b5b5090506107d3919061085e565b5090565b828054600181600116156101000203166002900490600052602060002090601f016020900481019282601f10610810578054855561084d565b8280016001018555821561084d57600052602060002091601f016020900482015b8281111561084c578254825591600101919060010190610831565b5b50905061085a919061085e565b5090565b61088091905b8082111561087c576000816000905550600101610864565b5090565b9056fea265627a7a72315820fffc85c84454675cd58f814d55f44a68796108869048303c32f14baf83a0331864736f6c63430005100032",
  "source": "pragma solidity ^0.5.0;\r\n\r\ncontract Adoption {\r\n    address[16] public adopters;\r\n    struct Card {\r\n        string firstName;\r\n        string lastName;\r\n        string dob;\r\n    }\r\n    Card card;\r\n    Card[] private cardArr;\r\n    function addData(string memory yes, string memory no, string memory ay) public {\r\n        card = Card(yes,no,ay);\r\n        cardArr.push(card);\r\n    }\r\n    uint public timesClicked;\r\n    address[16] clickers;\r\n\r\n    // Adopting a pet\r\n    function adopt(uint petId) public returns (uint) {\r\n        require(petId >= 0 && petId <= 15);\r\n\r\n        adopters[petId] = msg.sender;\r\n\r\n        return petId;\r\n    }\r\n\r\n    // Retrieving the adopters\r\n    function getAdopters() public view returns (address[16] memory) {\r\n        return adopters;\r\n    }\r\n\r\n    function clickMe() public returns (uint) {\r\n        timesClicked++;\r\n        if(timesClicked == 16) {\r\n            timesClicked = 0;\r\n        }\r\n        clickers[timesClicked] = msg.sender;\r\n        return timesClicked;\r\n    }\r\n    \r\n    function getClicker() public view returns (address[16] memory) {\r\n        return clickers;\r\n    }\r\n}",
  "sourcePath": "C:/Users/Christopher/ethereum_test/contracts/Adoption.sol",
  "compiler": {
    "name": "solc",
    "version": "0.5.16+commit.9c3226ce.Emscripten.clang"
  },
  "schemaVersion": "3.4.1",
  "updatedAt": "2021-07-16T20:32:32.121Z",
  "networkType": "ethereum",
  "devdoc": {
    "methods": {}
  },
  "userdoc": {
    "methods": {}
  }
}