{
  "contractName": "Adoption",
  "abi": [
    {
      "constant": true,
      "inputs": [
        {
          "internalType": "uint256",
          "name": "",
          "type": "uint256"
        }
      ],
      "name": "adopters",
      "outputs": [
        {
          "internalType": "address",
          "name": "",
          "type": "address"
        }
      ],
      "payable": false,
      "stateMutability": "view",
      "type": "function"
    },
    {
      "constant": true,
      "inputs": [
        {
          "internalType": "uint256",
          "name": "",
          "type": "uint256"
        }
      ],
      "name": "info",
      "outputs": [
        {
          "internalType": "string",
          "name": "",
          "type": "string"
        }
      ],
      "payable": false,
      "stateMutability": "view",
      "type": "function"
    },
    {
      "constant": true,
      "inputs": [],
      "name": "infoIndex",
      "outputs": [
        {
          "internalType": "uint256",
          "name": "",
          "type": "uint256"
        }
      ],
      "payable": false,
      "stateMutability": "view",
      "type": "function"
    },
    {
      "constant": true,
      "inputs": [],
      "name": "timesClicked",
      "outputs": [
        {
          "internalType": "uint256",
          "name": "",
          "type": "uint256"
        }
      ],
      "payable": false,
      "stateMutability": "view",
      "type": "function"
    },
    {
      "constant": false,
      "inputs": [
        {
          "internalType": "string",
          "name": "yes",
          "type": "string"
        },
        {
          "internalType": "string",
          "name": "no",
          "type": "string"
        },
        {
          "internalType": "string",
          "name": "ay",
          "type": "string"
        }
      ],
      "name": "addData",
      "outputs": [],
      "payable": false,
      "stateMutability": "nonpayable",
      "type": "function"
    },
    {
      "constant": false,
      "inputs": [],
      "name": "addInfo",
      "outputs": [
        {
          "internalType": "uint256",
          "name": "",
          "type": "uint256"
        }
      ],
      "payable": false,
      "stateMutability": "nonpayable",
      "type": "function"
    },
    {
      "constant": true,
      "inputs": [
        {
          "internalType": "string",
          "name": "data",
          "type": "string"
        }
      ],
      "name": "checkInfoExists",
      "outputs": [
        {
          "internalType": "bool",
          "name": "",
          "type": "bool"
        }
      ],
      "payable": false,
      "stateMutability": "view",
      "type": "function"
    },
    {
      "constant": true,
      "inputs": [],
      "name": "getLast",
      "outputs": [
        {
          "internalType": "string",
          "name": "",
          "type": "string"
        }
      ],
      "payable": false,
      "stateMutability": "view",
      "type": "function"
    },
    {
      "constant": false,
      "inputs": [
        {
          "internalType": "uint256",
          "name": "petId",
          "type": "uint256"
        }
      ],
      "name": "adopt",
      "outputs": [
        {
          "internalType": "uint256",
          "name": "",
          "type": "uint256"
        }
      ],
      "payable": false,
      "stateMutability": "nonpayable",
      "type": "function"
    },
    {
      "constant": true,
      "inputs": [],
      "name": "getAdopters",
      "outputs": [
        {
          "internalType": "address[16]",
          "name": "",
          "type": "address[16]"
        }
      ],
      "payable": false,
      "stateMutability": "view",
      "type": "function"
    },
    {
      "constant": false,
      "inputs": [
        {
          "internalType": "string",
          "name": "petId",
          "type": "string"
        }
      ],
      "name": "clickMe",
      "outputs": [
        {
          "internalType": "uint256",
          "name": "",
          "type": "uint256"
        }
      ],
      "payable": false,
      "stateMutability": "nonpayable",
      "type": "function"
    },
    {
      "constant": false,
      "inputs": [],
      "name": "clickMe2",
      "outputs": [
        {
          "internalType": "uint256",
          "name": "",
          "type": "uint256"
        }
      ],
      "payable": false,
      "stateMutability": "nonpayable",
      "type": "function"
    },
    {
      "constant": true,
      "inputs": [],
      "name": "getClicker",
      "outputs": [
        {
          "internalType": "address[16]",
          "name": "",
          "type": "address[16]"
        }
      ],
      "payable": false,
      "stateMutability": "view",
      "type": "function"
    },
    {
      "constant": true,
      "inputs": [],
      "name": "getCount",
      "outputs": [
        {
          "internalType": "uint256",
          "name": "",
          "type": "uint256"
        }
      ],
      "payable": false,
      "stateMutability": "view",
      "type": "function"
    },
    {
      "constant": true,
      "inputs": [],
      "name": "getAd",
      "outputs": [
        {
          "internalType": "address[16]",
          "name": "",
          "type": "address[16]"
        }
      ],
      "payable": false,
      "stateMutability": "view",
      "type": "function"
    }
  ],
  "bytecode": "0x608060405234801561001057600080fd5b50611117806100206000396000f3fe608060405234801561001057600080fd5b50600436106100f55760003560e01c8063600e0aed1161009757806388d5f8aa1161006657806388d5f8aa146106ff578063a87d942c1461071d578063b7daaed91461073b578063da4700ed14610781576100f5565b8063600e0aed146106635780636dfa125c14610681578063715249ca1461069f5780638588b2c5146106bd576100f5565b806340cb5711116100d357806340cb5711146103d057806343ae80d3146104a35780634d6228311461051157806358bce03814610594576100f5565b80632e340599146100fa5780633de4eb17146101a15780633e4aaec9146101e7575b600080fd5b6101266004803603602081101561011057600080fd5b81019080803590602001909291905050506107c7565b6040518080602001828103825283818151815260200191508051906020019080838360005b8381101561016657808201518184015260208101905061014b565b50505050905090810190601f1680156101935780820380516001836020036101000a031916815260200191505b509250505060405180910390f35b6101a9610877565b6040518082601060200280838360005b838110156101d45780820151818401526020810190506101b9565b5050505090500191505060405180910390f35b6103ce600480360360608110156101fd57600080fd5b810190808035906020019064010000000081111561021a57600080fd5b82018360208201111561022c57600080fd5b8035906020019184600183028401116401000000008311171561024e57600080fd5b91908080601f016020809104026020016040519081016040528093929190818152602001838380828437600081840152601f19601f820116905080830192505050505050509192919290803590602001906401000000008111156102b157600080fd5b8201836020820111156102c357600080fd5b803590602001918460018302840111640100000000831117156102e557600080fd5b91908080601f016020809104026020016040519081016040528093929190818152602001838380828437600081840152601f19601f8201169050808301925050505050505091929192908035906020019064010000000081111561034857600080fd5b82018360208201111561035a57600080fd5b8035906020019184600183028401116401000000008311171561037c57600080fd5b91908080601f016020809104026020016040519081016040528093929190818152602001838380828437600081840152601f19601f8201169050808301925050505050505091929192905050506108f8565b005b610489600480360360208110156103e657600080fd5b810190808035906020019064010000000081111561040357600080fd5b82018360208201111561041557600080fd5b8035906020019184600183028401116401000000008311171561043757600080fd5b91908080601f016020809104026020016040519081016040528093929190818152602001838380828437600081840152601f19601f820116905080830192505050505050509192919290505050610a1e565b604051808215151515815260200191505060405180910390f35b6104cf600480360360208110156104b957600080fd5b8101908080359060200190929190505050610ad5565b604051808273ffffffffffffffffffffffffffffffffffffffff1673ffffffffffffffffffffffffffffffffffffffff16815260200191505060405180910390f35b610519610b08565b6040518080602001828103825283818151815260200191508051906020019080838360005b8381101561055957808201518184015260208101905061053e565b50505050905090810190601f1680156105865780820380516001836020036101000a031916815260200191505b509250505060405180910390f35b61064d600480360360208110156105aa57600080fd5b81019080803590602001906401000000008111156105c757600080fd5b8201836020820111156105d957600080fd5b803590602001918460018302840111640100000000831117156105fb57600080fd5b91908080601f016020809104026020016040519081016040528093929190818152602001838380828437600081840152601f19601f820116905080830192505050505050509192919290505050610bbb565b6040518082815260200191505060405180910390f35b61066b610c8c565b6040518082815260200191505060405180910390f35b610689610d0b565b6040518082815260200191505060405180910390f35b6106a7610d11565b6040518082815260200191505060405180910390f35b6106e9600480360360208110156106d357600080fd5b8101908080359060200190929190505050610d90565b6040518082815260200191505060405180910390f35b610707610e01565b6040518082815260200191505060405180910390f35b610725610e07565b6040518082815260200191505060405180910390f35b610743610e11565b6040518082601060200280838360005b8381101561076e578082015181840152602081019050610753565b5050505090500191505060405180910390f35b610789610e92565b6040518082601060200280838360005b838110156107b4578082015181840152602081019050610799565b5050505090500191505060405180910390f35b602581601081106107d457fe5b016000915090508054600181600116156101000203166002900480601f01602080910402602001604051908101604052809291908181526020018280546001816001161561010002031660029004801561086f5780601f106108445761010080835404028352916020019161086f565b820191906000526020600020905b81548152906001019060200180831161085257829003601f168201915b505050505081565b61087f610f13565b60006010806020026040519081016040528092919082601080156108ee576020028201915b8160009054906101000a900473ffffffffffffffffffffffffffffffffffffffff1673ffffffffffffffffffffffffffffffffffffffff16815260200190600101908083116108a4575b5050505050905090565b60405180606001604052808481526020018381526020018281525060106000820151816000019080519060200190610931929190610f36565b50602082015181600101908051906020019061094e929190610f36565b50604082015181600201908051906020019061096b929190610f36565b509050506013601090806001815401808255809150509060018203906000526020600020906003020160009091929091909150600082018160000190805460018160011615610100020316600290046109c5929190610fb6565b50600182018160010190805460018160011615610100020316600290046109ed929190610fb6565b5060028201816002019080546001816001161561010002031660029004610a15929190610fb6565b50505050505050565b600080600090505b6010811015610aca5760258160108110610a3c57fe5b016040518082805460018160011615610100020316600290048015610a985780601f10610a76576101008083540402835291820191610a98565b820191906000526020600020905b815481529060010190602001808311610a84575b5050915050604051809103902083805190602001201415610abd576001915050610ad0565b8080600101915050610a26565b50600090505b919050565b60008160108110610ae257fe5b016000915054906101000a900473ffffffffffffffffffffffffffffffffffffffff1681565b60608060256010808110610b1857fe5b018054600181600116156101000203166002900480601f016020809104026020016040519081016040528092919081815260200182805460018160011615610100020316600290048015610bad5780601f10610b8257610100808354040283529160200191610bad565b820191906000526020600020905b815481529060010190602001808311610b9057829003601f168201915b505050505090508091505090565b600060146000815480929190600101919050555060106014541415610be35760006014819055505b33601560145460108110610bf357fe5b0160006101000a81548173ffffffffffffffffffffffffffffffffffffffff021916908373ffffffffffffffffffffffffffffffffffffffff16021790555060356000815480929190600101919050555060106035541415610c585760006035819055505b60006005905082602560355460108110610c6e57fe5b019080519060200190610c8292919061103d565b5080915050919050565b600060146000815480929190600101919050555060106014541415610cb45760006014819055505b33601560145460108110610cc457fe5b0160006101000a81548173ffffffffffffffffffffffffffffffffffffffff021916908373ffffffffffffffffffffffffffffffffffffffff160217905550601454905090565b60355481565b600060146000815480929190600101919050555060106014541415610d395760006014819055505b33601560145460108110610d4957fe5b0160006101000a81548173ffffffffffffffffffffffffffffffffffffffff021916908373ffffffffffffffffffffffffffffffffffffffff160217905550601454905090565b6000808210158015610da35750600f8211155b610dac57600080fd5b3360008360108110610dba57fe5b0160006101000a81548173ffffffffffffffffffffffffffffffffffffffff021916908373ffffffffffffffffffffffffffffffffffffffff160217905550819050919050565b60145481565b6000601454905090565b610e19610f13565b6015601080602002604051908101604052809291908260108015610e88576020028201915b8160009054906101000a900473ffffffffffffffffffffffffffffffffffffffff1673ffffffffffffffffffffffffffffffffffffffff1681526020019060010190808311610e3e575b5050505050905090565b610e9a610f13565b6000601080602002604051908101604052809291908260108015610f09576020028201915b8160009054906101000a900473ffffffffffffffffffffffffffffffffffffffff1673ffffffffffffffffffffffffffffffffffffffff1681526020019060010190808311610ebf575b5050505050905090565b604051806102000160405280601090602082028038833980820191505090505090565b828054600181600116156101000203166002900490600052602060002090601f016020900481019282601f10610f7757805160ff1916838001178555610fa5565b82800160010185558215610fa5579182015b82811115610fa4578251825591602001919060010190610f89565b5b509050610fb291906110bd565b5090565b828054600181600116156101000203166002900490600052602060002090601f016020900481019282601f10610fef578054855561102c565b8280016001018555821561102c57600052602060002091601f016020900482015b8281111561102b578254825591600101919060010190611010565b5b50905061103991906110bd565b5090565b828054600181600116156101000203166002900490600052602060002090601f016020900481019282601f1061107e57805160ff19168380011785556110ac565b828001600101855582156110ac579182015b828111156110ab578251825591602001919060010190611090565b5b5090506110b991906110bd565b5090565b6110df91905b808211156110db5760008160009055506001016110c3565b5090565b9056fea265627a7a7231582068f126aa150f61266d49f4265587acc541f9447dd5452672039747d256e722cb64736f6c63430005100032",
  "source": "pragma solidity ^0.5.0;\r\n\r\ncontract Adoption {\r\n    address[16] public adopters;\r\n    struct Card {\r\n        string firstName;\r\n        string lastName;\r\n        string dob;\r\n    }\r\n    Card card;\r\n    Card[] private cardArr;\r\n    function addData(string memory yes, string memory no, string memory ay) public {\r\n        card = Card(yes,no,ay);\r\n        cardArr.push(card);\r\n    }\r\n    uint public timesClicked;\r\n    address[16] clickers;\r\n    string[16] public info;\r\n    uint public infoIndex;\r\n\r\n    function addInfo() public returns (uint) {\r\n        timesClicked++;\r\n        if(timesClicked == 16) {\r\n            timesClicked = 0;\r\n        }\r\n        clickers[timesClicked] = msg.sender;\r\n        return timesClicked;\r\n    }\r\n\r\n    function checkInfoExists(string memory data) public view returns (bool) {\r\n        for (uint i = 0; i < 16; i++) {\r\n            if(keccak256(bytes(data)) == keccak256(bytes(info[i]))) {\r\n                return true;\r\n            }\r\n        }\r\n        return false;\r\n    }\r\n\r\n    function getLast() public view returns (string memory) {\r\n        string memory data = info[info.length];\r\n        return data;\r\n    }\r\n\r\n    // Adopting a pet\r\n    function adopt(uint petId) public returns (uint) {\r\n        require(petId >= 0 && petId <= 15);\r\n\r\n        adopters[petId] = msg.sender;\r\n\r\n        return petId;\r\n    }\r\n\r\n    // Retrieving the adopters\r\n    function getAdopters() public view returns (address[16] memory) {\r\n        return adopters;\r\n    }\r\n\r\n    function clickMe(string memory petId) public returns (uint) {\r\n        \r\n        timesClicked++;\r\n        if(timesClicked == 16) {\r\n            timesClicked = 0;\r\n        }\r\n        clickers[timesClicked] = msg.sender;\r\n        infoIndex++;\r\n        if(infoIndex == 16) {\r\n            infoIndex = 0;\r\n        }\r\n        uint data = 5;\r\n        info[infoIndex] = petId;\r\n        return data;\r\n    }\r\n\r\n    function clickMe2() public returns (uint) {\r\n        timesClicked++;\r\n        if(timesClicked == 16) {\r\n            timesClicked = 0;\r\n        }\r\n        clickers[timesClicked] = msg.sender;\r\n        return timesClicked;\r\n    }\r\n    \r\n    function getClicker() public view returns (address[16] memory) {\r\n        return clickers;\r\n    }\r\n\r\n    function getCount() public view returns (uint) {\r\n        return timesClicked;\r\n    }\r\n\r\n    function getAd() public view returns (address[16] memory) {\r\n        return adopters;\r\n    }\r\n}",
  "sourcePath": "C:/Users/Christopher/Desktop/mtb/Ethereum_AppDevChallenge/contracts/Adoption.sol",
  "compiler": {
    "name": "solc",
    "version": "0.5.16+commit.9c3226ce.Emscripten.clang"
  },
  "schemaVersion": "3.4.1",
  "updatedAt": "2021-07-29T16:15:44.726Z",
  "networkType": "ethereum",
  "devdoc": {
    "methods": {}
  },
  "userdoc": {
    "methods": {}
  }
}